:03000000020A5998
:0C0A5900787FE4F6D8FD758120020AA029
:100B6900456E7465722050617373776F72643A00D1
:100B790057524F4E47205041535300417474656D8D
:100B8900707473204C6566743A004143434553536E
:100B99002044454E49454400494E54525544455216
:100BA90020414C455254210057656C636F6D652097
:090BB900486F6D65202D5F2D00D1
:080D8A00011800011900C1006D
:10080000120CDF120DB97F01120DA87F01120DAE7F
:10081000120D48EF64016003020952C200120DB4C8
:100820007BFF7A0B7969120C9AE4FD7F01120BC2EF
:10083000120AE5120CFEE5187023FF120DAE7F01BF
:10084000120DA8750D03120BF3120D317F53120C0C
:1008500073120D5E7F2C7E01120CBF8078150DE4A3
:10086000FF120DA87F01120DAEE50D6068120DB4E8
:100870007BFF7A0B7979120C9A7F2C7E01120CBFC8
:10088000120DB47BFF7A0B7984120C9AAF0D120C07
:100890004A7F2C7E01120CBF120DB47BFF7A0B79BC
:1008A00069120C9AE4FD7F01120BC2120AE5120CC8
:1008B000FEE518B40115150DE50DB40105E4FF12B0
:1008C0000DA87F647E00120CBF809EE518709A759B
:1008D0001901750D03E519B40121E4F519FF120D95
:1008E000AE7F01120DA8120BF3120D317F53120CC3
:1008F00073120D5E7F2C7E01120CBFE50D600302AA
:100900000810120DB47BFF7A0B7993120C9AE4FD58
:100910007F01120BC27BFF7A0B79A1120C9A7FE840
:100920007E03120CBFE4F513E51320E009E4FF1287
:100930000DA87F0180077F01120DA8E4FF120DAE04
:100940007F2C7E01120CBF0513E513C3940640D81B
:1009500080FE300003020810120DB47BFF7A0B7981
:09096000B1120C9AD20002081039
:10096900D2A0D2A1D2A27F327E00120CBFC2A3D2E2
:10097900A4D2A5D2A620A00D7F327E00120CBF30D2
:10098900A0FD7F312220A10D7F327E00120CBF30E5
:10099900A1FD7F322220A20D7F327E00120CBF30D2
:1009A900A2FD7F3322D2A3C2A4D2A5D2A620A00D34
:1009B9007F327E00120CBF30A0FD7F342220A10DB2
:1009C9007F327E00120CBF30A1FD7F352220A20D9F
:1009D9007F327E00120CBF30A2FD7F3622D2A3D215
:1009E900A4C2A5D2A620A00D7F327E00120CBF3072
:1009F900A0FD7F372220A10D7F327E00120CBF306F
:100A0900A1FD7F382220A20D7F327E00120CBF305B
:100A1900A2FD7F3922D2A3D2A4D2A5C2A620A00DBD
:100A29007F327E00120CBF30A0FD7F2A2220A10D4B
:100A39007F327E00120CBF30A1FD7F302230A2032D
:100A49000209697F327E00120CBF30A2FD7F23228A
:100CDF00C280C281C2827F147E00120CBFE4F590E5
:0F0CEF007F38120C217F0C120C217F01020C2187
:100C21008F17C280C2827F017E00120CBFD2817FEA
:100C3100017E00120CBF8517907F017E00120CBF50
:090C4100C2817F017E00020CBF9C
:100C4A008F17D280C2827F017E00120CBFD2817FB1
:100C5A00017E00120CBF8517907F017E00120CBF27
:090C6A00C2817F017E00020CBF73
:100C9A008B148A158916AB14AA15A916120D186099
:100CAA00130516E5167002051514F9120D18FF1230
:050CBA000C4A80E2225B
:050DB4007F01020C218B
:100BC200EF14600E146012146016240370198D164F
:100BD2008017ED2440F5168010ED2410F5168009DB
:100BE200ED2450F51680028D16E5164480FF020CA6
:010BF20021E1
:100CBF00E4FDFCC3ED9FEC9E5015E4FBFA0BBB006B
:0F0CCF00010ABA04F8BBFBF50DBD00010C80E46F
:010CDE0022F3
:060DA800EF24FF928522FA
:060DAE00EF24FF928422F5
:100D480020B3107F147E00120CBF20B30630B3FD11
:060D58007F01227F002252
:050DB900D286D2872262
:100D3100D286D2877F017E00120CBFC2867F017EE0
:070D410000120CBFC2872263
:100D5E00C287C2867F017E00120CBFD287D2867FE9
:060D6E00017E00020CBF33
:100D7400D286D2877F017E00120CBF308604C287E0
:060D8400C322C287D32246
:020C73008F14DC
:100C7500E4F515E514339286D2877F017E00120CC8
:100C8500BFC287E51425E0F5140515E515C39408DD
:050C950040E1020D74B6
:0B0D9D004F70656E00436C6F736500C3
:0A0D9200050E3132333400010D0369
:100BF300120DB47BFF7A0D799D120C9A7FE87E0368
:100C0300120CBF120DB47BFF7A0D79A2120C9A7FDE
:0E0C1300F47E01120CBF7F01120DAE020DB473
:100AE500E4F514F51474082514F8E4F60514E51472
:100AF500B404F2E4F5141209698F15E51564236051
:100B05005CE515C394304023E515D39439501CE5B5
:100B150014C39404501574082514F8A615740825F3
:100B250014F8E6FF120C4A05148029E515642A70AD
:100B350023E514D39400401C151474082514F8E417
:100B4500F6AD147F01120BC27F20120C4AAD147F43
:100B550001120BC27F327E00120CBF809912096907
:030B6500BF23FAB1
:010B6800226A
:100CFE00E4F518FF740E2FF8E6FE74082FF8E66E72
:090D0E0060037518010FBF04EB2E
:010D170022B9
:100A6500020800E493A3F8E493A34003F68001F29F
:100A750008DFF48029E493A3F85407240CC8C33392
:100A8500C4540F4420C8834004F456800146F6DF61
:100A9500E4800B0102040810204080900D8AE47E5A
:100AA500019360BCA3FF543F30E509541FFEE49356
:100AB500A360010ECF54C025E060A840B8E493A31D
:100AC500FAE493A3F8E493A3C8C582C8CAC583CA48
:100AD500F0A3C8C582C8CAC583CADFE9DEE780BE00
:010D9C000056
:100D1800BB010689828A83E0225002E722BBFE02D9
:090D2800E32289828A83E493220C
:00000001FF
