:03000000020929C9
:0C092900787FE4F6D8FD7581200209708B
:100AE700C281C2807F147E00120AC7E4F5907F3866
:0D0AF700120A347F0C120A347F01020A3407
:100A34008F09C2817F017E00120AC7D2807F017EA6
:100A440000120AC78509907F017E00120AC7C2807E
:070A54007F017E00020AC7CA
:100A5B008F0CD2817F017E00120AC7D2807F017E6C
:100A6B0000120AC7850C907F017E00120AC7C28054
:070A7B007F017E00020AC7A3
:060A82008B088A09890AB5
:100A8800E4F50BAB08AA09A90A850B827583001245
:0C0A98000A07FF6007120A5B050B80E7ED
:010AA400222F
:050B95007F01020A349B
:100B0400EF14600704700B8D088009ED2440F5088C
:0C0B140080028D08E5084480FF020A34CE
:100AC700E4FDFCC3ED9FEC9E5015E4FBFA0BBB0065
:0F0AD700010ABA04F8BBFBF50DBD00010C80E469
:010AE60022ED
:1009B5004F4E20004F4646004D31004D32004D331D
:1009C500004D34004143205374617475733A2020FF
:1009D50020004C69676874205374617475733A001C
:1009E500202020536D61727420486F6D6520202092
:1009F5000020576520416C776179732048657265E1
:020A05002000CF
:080B7400010E00010D00C1009B
:10080000120AE7120B9A7F01120B7D7F01120B83F4
:100810007F01120B897F01120B8F120B20120B68C4
:100820003000FA120B3CEF702D050EE50EB4010FEF
:100830007D0AE4FF120B047BFF7A0979B58014E589
:100840000EB40212E4F50E7D0AFF120B047BFF7A50
:100850000979B9120A82120B52EF70C1050DE50D2C
:10086000640170197D0E7F01120B047BFF7A0979F8
:10087000BD120A82E4FF120B8F7F01801DE50D641B
:1008800002701E7D0E7F01120B047BFF7A0979C076
:10089000120A82E4FF120B8FE4FF120B897F0180A2
:1008A00022E50D640370237D0E7F01120B047BFF94
:1008B0007A0979C3120A82E4FF120B8FE4FF120B4C
:1008C00089E4FF120B837F018027E50D6404702704
:1008D0007D0E7F01120B047BFF7A0979C6120A8212
:1008E000E4FF120B8FE4FF120B89E4FF120B83E489
:1008F000FF120B7D02081DE50D6405600302081D53
:10090000F50D7D0D7F01120B047BFF7A0979B91279
:100910000A827F01120B8F7F01120B897F01120B5C
:09092000837F01120B7D02081D0A
:100AA500120B95E4FDFF120B047BFF7A0979C9123D
:100AB5000A82E4FD7F01120B047BFF7A0979D702D4
:020AC5000A82A3
:100B2000120B957BFF7A0979E5120A82E4FD7F01B9
:0C0B3000120B047BFF7A0979F6020A829E
:060B7D00EF24FF92852227
:060B8300EF24FF92842222
:060B8900EF24FF9283221D
:060B8F00EF24FF92822218
:100B3C0020B2107F147E00120AC720B20630B2FD1C
:060B4C007F00227F012260
:100B520020B3107F147E00120AC720B30630B3FD03
:060B62007F00227F01224A
:050B9A00D286D2872283
:0C0B6800208708208605D200120AA52272
:10093500020800E493A3F8E493A34003F68001F2D0
:1009450008DFF48029E493A3F85407240CC8C333C3
:10095500C4540F4420C8834004F456800146F6DF92
:10096500E4800B0102040810204080900B74E47EA3
:10097500019360BCA3FF543F30E509541FFEE49387
:10098500A360010ECF54C025E060A840B8E493A34E
:10099500FAE493A3F8E493A3C8C582C8CAC583CA79
:1009A500F0A3C8C582C8CAC583CADFE9DEE780BE31
:010B7C000078
:100A0700BB010CE58229F582E5833AF583E02250A4
:100A170006E92582F8E622BBFE06E92582F8E222EE
:0D0A2700E58229F582E5833AF583E4932208
:00000001FF
